{
  "contractName": "ChocosferaSRL",
  "abi": [
    {
      "inputs": [],
      "stateMutability": "nonpayable",
      "type": "constructor"
    },
    {
      "inputs": [],
      "name": "InvalidShortString",
      "type": "error"
    },
    {
      "inputs": [
        {
          "internalType": "string",
          "name": "str",
          "type": "string"
        }
      ],
      "name": "StringTooLong",
      "type": "error"
    },
    {
      "anonymous": false,
      "inputs": [
        {
          "indexed": true,
          "internalType": "address",
          "name": "owner",
          "type": "address"
        },
        {
          "indexed": true,
          "internalType": "address",
          "name": "spender",
          "type": "address"
        },
        {
          "indexed": false,
          "internalType": "uint256",
          "name": "value",
          "type": "uint256"
        }
      ],
      "name": "Approval",
      "type": "event"
    },
    {
      "anonymous": false,
      "inputs": [
        {
          "indexed": true,
          "internalType": "address",
          "name": "delegator",
          "type": "address"
        },
        {
          "indexed": true,
          "internalType": "address",
          "name": "fromDelegate",
          "type": "address"
        },
        {
          "indexed": true,
          "internalType": "address",
          "name": "toDelegate",
          "type": "address"
        }
      ],
      "name": "DelegateChanged",
      "type": "event"
    },
    {
      "anonymous": false,
      "inputs": [
        {
          "indexed": true,
          "internalType": "address",
          "name": "delegate",
          "type": "address"
        },
        {
          "indexed": false,
          "internalType": "uint256",
          "name": "previousBalance",
          "type": "uint256"
        },
        {
          "indexed": false,
          "internalType": "uint256",
          "name": "newBalance",
          "type": "uint256"
        }
      ],
      "name": "DelegateVotesChanged",
      "type": "event"
    },
    {
      "anonymous": false,
      "inputs": [],
      "name": "EIP712DomainChanged",
      "type": "event"
    },
    {
      "anonymous": false,
      "inputs": [
        {
          "indexed": true,
          "internalType": "address",
          "name": "previousOwner",
          "type": "address"
        },
        {
          "indexed": true,
          "internalType": "address",
          "name": "newOwner",
          "type": "address"
        }
      ],
      "name": "OwnershipTransferred",
      "type": "event"
    },
    {
      "anonymous": false,
      "inputs": [
        {
          "indexed": false,
          "internalType": "uint256",
          "name": "id",
          "type": "uint256"
        }
      ],
      "name": "Snapshot",
      "type": "event"
    },
    {
      "anonymous": false,
      "inputs": [
        {
          "indexed": true,
          "internalType": "address",
          "name": "from",
          "type": "address"
        },
        {
          "indexed": true,
          "internalType": "address",
          "name": "to",
          "type": "address"
        },
        {
          "indexed": false,
          "internalType": "uint256",
          "name": "value",
          "type": "uint256"
        }
      ],
      "name": "Transfer",
      "type": "event"
    },
    {
      "inputs": [],
      "name": "CLOCK_MODE",
      "outputs": [
        {
          "internalType": "string",
          "name": "",
          "type": "string"
        }
      ],
      "stateMutability": "view",
      "type": "function",
      "constant": true
    },
    {
      "inputs": [],
      "name": "DOMAIN_SEPARATOR",
      "outputs": [
        {
          "internalType": "bytes32",
          "name": "",
          "type": "bytes32"
        }
      ],
      "stateMutability": "view",
      "type": "function",
      "constant": true
    },
    {
      "inputs": [
        {
          "internalType": "address",
          "name": "owner",
          "type": "address"
        },
        {
          "internalType": "address",
          "name": "spender",
          "type": "address"
        }
      ],
      "name": "allowance",
      "outputs": [
        {
          "internalType": "uint256",
          "name": "",
          "type": "uint256"
        }
      ],
      "stateMutability": "view",
      "type": "function",
      "constant": true
    },
    {
      "inputs": [
        {
          "internalType": "address",
          "name": "spender",
          "type": "address"
        },
        {
          "internalType": "uint256",
          "name": "amount",
          "type": "uint256"
        }
      ],
      "name": "approve",
      "outputs": [
        {
          "internalType": "bool",
          "name": "",
          "type": "bool"
        }
      ],
      "stateMutability": "nonpayable",
      "type": "function"
    },
    {
      "inputs": [
        {
          "internalType": "address",
          "name": "account",
          "type": "address"
        }
      ],
      "name": "balanceOf",
      "outputs": [
        {
          "internalType": "uint256",
          "name": "",
          "type": "uint256"
        }
      ],
      "stateMutability": "view",
      "type": "function",
      "constant": true
    },
    {
      "inputs": [
        {
          "internalType": "address",
          "name": "account",
          "type": "address"
        },
        {
          "internalType": "uint256",
          "name": "snapshotId",
          "type": "uint256"
        }
      ],
      "name": "balanceOfAt",
      "outputs": [
        {
          "internalType": "uint256",
          "name": "",
          "type": "uint256"
        }
      ],
      "stateMutability": "view",
      "type": "function",
      "constant": true
    },
    {
      "inputs": [
        {
          "internalType": "address",
          "name": "account",
          "type": "address"
        },
        {
          "internalType": "uint32",
          "name": "pos",
          "type": "uint32"
        }
      ],
      "name": "checkpoints",
      "outputs": [
        {
          "components": [
            {
              "internalType": "uint32",
              "name": "fromBlock",
              "type": "uint32"
            },
            {
              "internalType": "uint224",
              "name": "votes",
              "type": "uint224"
            }
          ],
          "internalType": "struct ERC20Votes.Checkpoint",
          "name": "",
          "type": "tuple"
        }
      ],
      "stateMutability": "view",
      "type": "function",
      "constant": true
    },
    {
      "inputs": [],
      "name": "clock",
      "outputs": [
        {
          "internalType": "uint48",
          "name": "",
          "type": "uint48"
        }
      ],
      "stateMutability": "view",
      "type": "function",
      "constant": true
    },
    {
      "inputs": [],
      "name": "decimals",
      "outputs": [
        {
          "internalType": "uint8",
          "name": "",
          "type": "uint8"
        }
      ],
      "stateMutability": "view",
      "type": "function",
      "constant": true
    },
    {
      "inputs": [
        {
          "internalType": "address",
          "name": "spender",
          "type": "address"
        },
        {
          "internalType": "uint256",
          "name": "subtractedValue",
          "type": "uint256"
        }
      ],
      "name": "decreaseAllowance",
      "outputs": [
        {
          "internalType": "bool",
          "name": "",
          "type": "bool"
        }
      ],
      "stateMutability": "nonpayable",
      "type": "function"
    },
    {
      "inputs": [
        {
          "internalType": "address",
          "name": "delegatee",
          "type": "address"
        }
      ],
      "name": "delegate",
      "outputs": [],
      "stateMutability": "nonpayable",
      "type": "function"
    },
    {
      "inputs": [
        {
          "internalType": "address",
          "name": "delegatee",
          "type": "address"
        },
        {
          "internalType": "uint256",
          "name": "nonce",
          "type": "uint256"
        },
        {
          "internalType": "uint256",
          "name": "expiry",
          "type": "uint256"
        },
        {
          "internalType": "uint8",
          "name": "v",
          "type": "uint8"
        },
        {
          "internalType": "bytes32",
          "name": "r",
          "type": "bytes32"
        },
        {
          "internalType": "bytes32",
          "name": "s",
          "type": "bytes32"
        }
      ],
      "name": "delegateBySig",
      "outputs": [],
      "stateMutability": "nonpayable",
      "type": "function"
    },
    {
      "inputs": [
        {
          "internalType": "address",
          "name": "account",
          "type": "address"
        }
      ],
      "name": "delegates",
      "outputs": [
        {
          "internalType": "address",
          "name": "",
          "type": "address"
        }
      ],
      "stateMutability": "view",
      "type": "function",
      "constant": true
    },
    {
      "inputs": [],
      "name": "eip712Domain",
      "outputs": [
        {
          "internalType": "bytes1",
          "name": "fields",
          "type": "bytes1"
        },
        {
          "internalType": "string",
          "name": "name",
          "type": "string"
        },
        {
          "internalType": "string",
          "name": "version",
          "type": "string"
        },
        {
          "internalType": "uint256",
          "name": "chainId",
          "type": "uint256"
        },
        {
          "internalType": "address",
          "name": "verifyingContract",
          "type": "address"
        },
        {
          "internalType": "bytes32",
          "name": "salt",
          "type": "bytes32"
        },
        {
          "internalType": "uint256[]",
          "name": "extensions",
          "type": "uint256[]"
        }
      ],
      "stateMutability": "view",
      "type": "function",
      "constant": true
    },
    {
      "inputs": [
        {
          "internalType": "uint256",
          "name": "timepoint",
          "type": "uint256"
        }
      ],
      "name": "getPastTotalSupply",
      "outputs": [
        {
          "internalType": "uint256",
          "name": "",
          "type": "uint256"
        }
      ],
      "stateMutability": "view",
      "type": "function",
      "constant": true
    },
    {
      "inputs": [
        {
          "internalType": "address",
          "name": "account",
          "type": "address"
        },
        {
          "internalType": "uint256",
          "name": "timepoint",
          "type": "uint256"
        }
      ],
      "name": "getPastVotes",
      "outputs": [
        {
          "internalType": "uint256",
          "name": "",
          "type": "uint256"
        }
      ],
      "stateMutability": "view",
      "type": "function",
      "constant": true
    },
    {
      "inputs": [
        {
          "internalType": "address",
          "name": "account",
          "type": "address"
        }
      ],
      "name": "getVotes",
      "outputs": [
        {
          "internalType": "uint256",
          "name": "",
          "type": "uint256"
        }
      ],
      "stateMutability": "view",
      "type": "function",
      "constant": true
    },
    {
      "inputs": [
        {
          "internalType": "address",
          "name": "spender",
          "type": "address"
        },
        {
          "internalType": "uint256",
          "name": "addedValue",
          "type": "uint256"
        }
      ],
      "name": "increaseAllowance",
      "outputs": [
        {
          "internalType": "bool",
          "name": "",
          "type": "bool"
        }
      ],
      "stateMutability": "nonpayable",
      "type": "function"
    },
    {
      "inputs": [],
      "name": "name",
      "outputs": [
        {
          "internalType": "string",
          "name": "",
          "type": "string"
        }
      ],
      "stateMutability": "view",
      "type": "function",
      "constant": true
    },
    {
      "inputs": [
        {
          "internalType": "address",
          "name": "owner",
          "type": "address"
        }
      ],
      "name": "nonces",
      "outputs": [
        {
          "internalType": "uint256",
          "name": "",
          "type": "uint256"
        }
      ],
      "stateMutability": "view",
      "type": "function",
      "constant": true
    },
    {
      "inputs": [
        {
          "internalType": "address",
          "name": "account",
          "type": "address"
        }
      ],
      "name": "numCheckpoints",
      "outputs": [
        {
          "internalType": "uint32",
          "name": "",
          "type": "uint32"
        }
      ],
      "stateMutability": "view",
      "type": "function",
      "constant": true
    },
    {
      "inputs": [],
      "name": "owner",
      "outputs": [
        {
          "internalType": "address",
          "name": "",
          "type": "address"
        }
      ],
      "stateMutability": "view",
      "type": "function",
      "constant": true
    },
    {
      "inputs": [
        {
          "internalType": "address",
          "name": "owner",
          "type": "address"
        },
        {
          "internalType": "address",
          "name": "spender",
          "type": "address"
        },
        {
          "internalType": "uint256",
          "name": "value",
          "type": "uint256"
        },
        {
          "internalType": "uint256",
          "name": "deadline",
          "type": "uint256"
        },
        {
          "internalType": "uint8",
          "name": "v",
          "type": "uint8"
        },
        {
          "internalType": "bytes32",
          "name": "r",
          "type": "bytes32"
        },
        {
          "internalType": "bytes32",
          "name": "s",
          "type": "bytes32"
        }
      ],
      "name": "permit",
      "outputs": [],
      "stateMutability": "nonpayable",
      "type": "function"
    },
    {
      "inputs": [],
      "name": "renounceOwnership",
      "outputs": [],
      "stateMutability": "nonpayable",
      "type": "function"
    },
    {
      "inputs": [],
      "name": "symbol",
      "outputs": [
        {
          "internalType": "string",
          "name": "",
          "type": "string"
        }
      ],
      "stateMutability": "view",
      "type": "function",
      "constant": true
    },
    {
      "inputs": [],
      "name": "totalSupply",
      "outputs": [
        {
          "internalType": "uint256",
          "name": "",
          "type": "uint256"
        }
      ],
      "stateMutability": "view",
      "type": "function",
      "constant": true
    },
    {
      "inputs": [
        {
          "internalType": "uint256",
          "name": "snapshotId",
          "type": "uint256"
        }
      ],
      "name": "totalSupplyAt",
      "outputs": [
        {
          "internalType": "uint256",
          "name": "",
          "type": "uint256"
        }
      ],
      "stateMutability": "view",
      "type": "function",
      "constant": true
    },
    {
      "inputs": [
        {
          "internalType": "address",
          "name": "to",
          "type": "address"
        },
        {
          "internalType": "uint256",
          "name": "amount",
          "type": "uint256"
        }
      ],
      "name": "transfer",
      "outputs": [
        {
          "internalType": "bool",
          "name": "",
          "type": "bool"
        }
      ],
      "stateMutability": "nonpayable",
      "type": "function"
    },
    {
      "inputs": [
        {
          "internalType": "address",
          "name": "from",
          "type": "address"
        },
        {
          "internalType": "address",
          "name": "to",
          "type": "address"
        },
        {
          "internalType": "uint256",
          "name": "amount",
          "type": "uint256"
        }
      ],
      "name": "transferFrom",
      "outputs": [
        {
          "internalType": "bool",
          "name": "",
          "type": "bool"
        }
      ],
      "stateMutability": "nonpayable",
      "type": "function"
    },
    {
      "inputs": [
        {
          "internalType": "address",
          "name": "newOwner",
          "type": "address"
        }
      ],
      "name": "transferOwnership",
      "outputs": [],
      "stateMutability": "nonpayable",
      "type": "function"
    },
    {
      "inputs": [],
      "name": "snapshot",
      "outputs": [],
      "stateMutability": "nonpayable",
      "type": "function"
    },
    {
      "inputs": [
        {
          "internalType": "address",
          "name": "to",
          "type": "address"
        },
        {
          "internalType": "uint256",
          "name": "amount",
          "type": "uint256"
        }
      ],
      "name": "mint",
      "outputs": [],
      "stateMutability": "nonpayable",
      "type": "function"
    }
  ],
  "bytecode": "0x6101606040523480156200001257600080fd5b506040518060400160405280601081526020017f43686f636f736665726120532e722e6c00000000000000000000000000000000815250806040518060400160405280600181526020017f31000000000000000000000000000000000000000000000000000000000000008152506040518060400160405280601081526020017f43686f636f736665726120532e722e6c000000000000000000000000000000008152506040518060400160405280600381526020017f43484f000000000000000000000000000000000000000000000000000000000081525081600390805190602001906200010492919062001160565b5080600490805190602001906200011d92919062001160565b50505062000140620001346200024360201b60201c565b6200024b60201b60201c565b6200015b600a836200031160201b620013941790919060201c565b61012081815250506200017e600b826200031160201b620013941790919060201c565b6101408181525050818051906020012060e08181525050808051906020012061010081815250504660a08181525050620001bd6200037560201b60201c565b608081815250503073ffffffffffffffffffffffffffffffffffffffff1660c08173ffffffffffffffffffffffffffffffffffffffff1660601b815250505050506200023d3362000213620003d260201b60201c565b600a620002219190620013aa565b62029810620002319190620013fb565b620003db60201b60201c565b62001ae9565b600033905090565b6000600960009054906101000a900473ffffffffffffffffffffffffffffffffffffffff16905081600960006101000a81548173ffffffffffffffffffffffffffffffffffffffff021916908373ffffffffffffffffffffffffffffffffffffffff1602179055508173ffffffffffffffffffffffffffffffffffffffff168173ffffffffffffffffffffffffffffffffffffffff167f8be0079c531659141344cd1fd0a4f28419497f9722a3daafe3b4186f6b6457e060405160405180910390a35050565b600060208351101562000337576200032f83620003f660201b60201c565b90506200036f565b826200034e836200046360201b620013df1760201c565b60000190805190602001906200036692919062001160565b5060ff60001b90505b92915050565b60007f8b73c3c69bb8fe3d512ecc4cf759cc79239f7b179b0ffacaa9a75d522b39400f60e051610100514630604051602001620003b7959493929190620014cd565b60405160208183030381529060405280519060200120905090565b60006012905090565b620003f282826200046d60201b620013e91760201c565b5050565b600080829050601f815111156200044657826040517f305a27a90000000000000000000000000000000000000000000000000000000081526004016200043d9190620015ce565b60405180910390fd5b805181620004549062001631565b60001c1760001b915050919050565b6000819050919050565b6200048482826200052b60201b620014761760201c565b620004946200069960201b60201c565b7bffffffffffffffffffffffffffffffffffffffffffffffffffffffff16620004c2620006bd60201b60201c565b111562000506576040517f08c379a0000000000000000000000000000000000000000000000000000000008152600401620004fd9062001717565b60405180910390fd5b620005256010620006c760201b620015cd1783620006df60201b60201c565b50505050565b600073ffffffffffffffffffffffffffffffffffffffff168273ffffffffffffffffffffffffffffffffffffffff1614156200059e576040517f08c379a0000000000000000000000000000000000000000000000000000000008152600401620005959062001789565b60405180910390fd5b620005b26000838362000a0460201b60201c565b8060026000828254620005c69190620017ab565b92505081905550806000808473ffffffffffffffffffffffffffffffffffffffff1673ffffffffffffffffffffffffffffffffffffffff168152602001908152602001600020600082825401925050819055508173ffffffffffffffffffffffffffffffffffffffff16600073ffffffffffffffffffffffffffffffffffffffff167fddf252ad1be2c89b69c2b068fc378daa952ba7f163c4a11628f55a4df523b3ef8360405162000679919062001808565b60405180910390a3620006956000838362000a2160201b60201c565b5050565b60007bffffffffffffffffffffffffffffffffffffffffffffffffffffffff905090565b6000600254905090565b60008183620006d79190620017ab565b905092915050565b6000806000858054905090506000808214620007af576200070a876001840362000a3e60201b60201c565b6040518060400160405290816000820160009054906101000a900463ffffffff1663ffffffff1663ffffffff1681526020016000820160049054906101000a90047bffffffffffffffffffffffffffffffffffffffffffffffffffffffff167bffffffffffffffffffffffffffffffffffffffffffffffffffffffff167bffffffffffffffffffffffffffffffffffffffffffffffffffffffff1681525050620007eb565b6040518060400160405280600063ffffffff16815260200160007bffffffffffffffffffffffffffffffffffffffffffffffffffffffff168152505b905080602001517bffffffffffffffffffffffffffffffffffffffffffffffffffffffff1693506200081e84868860201c565b92506000821180156200085157506200083c62000a5360201b60201c565b65ffffffffffff16816000015163ffffffff16145b15620008d9576200086d8362000a7060201b620015e31760201c565b62000882886001850362000a3e60201b60201c565b60000160046101000a8154817bffffffffffffffffffffffffffffffffffffffffffffffffffffffff02191690837bffffffffffffffffffffffffffffffffffffffffffffffffffffffff160217905550620009fa565b86604051806040016040528062000912620008f962000a5360201b60201c565b65ffffffffffff1662000ade60201b6200164e1760201c565b63ffffffff168152602001620009338662000a7060201b620015e31760201c565b7bffffffffffffffffffffffffffffffffffffffffffffffffffffffff168152509080600181540180825580915050600190039060005260206000200160009091909190915060008201518160000160006101000a81548163ffffffff021916908363ffffffff16021790555060208201518160000160046101000a8154817bffffffffffffffffffffffffffffffffffffffffffffffffffffffff02191690837bffffffffffffffffffffffffffffffffffffffffffffffffffffffff16021790555050505b5050935093915050565b62000a1c83838362000b3460201b620016a11760201c565b505050565b62000a3983838362000c2f60201b6200175b1760201c565b505050565b60008260005281602060002001905092915050565b600062000a6b4362000c7f60201b620017861760201c565b905090565b60007bffffffffffffffffffffffffffffffffffffffffffffffffffffffff801682111562000ad6576040517f08c379a000000000000000000000000000000000000000000000000000000000815260040162000acd906200189b565b60405180910390fd5b819050919050565b600063ffffffff801682111562000b2c576040517f08c379a000000000000000000000000000000000000000000000000000000000815260040162000b239062001933565b60405180910390fd5b819050919050565b62000b4c83838362000cd760201b620017db1760201c565b600073ffffffffffffffffffffffffffffffffffffffff168373ffffffffffffffffffffffffffffffffffffffff16141562000ba95762000b938262000cdc60201b60201c565b62000ba362000d3f60201b60201c565b62000c2a565b600073ffffffffffffffffffffffffffffffffffffffff168273ffffffffffffffffffffffffffffffffffffffff16141562000c065762000bf08362000cdc60201b60201c565b62000c0062000d3f60201b60201c565b62000c29565b62000c178362000cdc60201b60201c565b62000c288262000cdc60201b60201c565b5b5b505050565b62000c4783838362000d6360201b620017e01760201c565b62000c7a62000c5c8462000d6860201b60201c565b62000c6d8462000d6860201b60201c565b8362000dd160201b60201c565b505050565b600065ffffffffffff801682111562000ccf576040517f08c379a000000000000000000000000000000000000000000000000000000000815260040162000cc690620019cb565b60405180910390fd5b819050919050565b505050565b62000d3c600560008373ffffffffffffffffffffffffffffffffffffffff1673ffffffffffffffffffffffffffffffffffffffff16815260200190815260200160002062000d308362000ff460201b60201c565b6200103c60201b60201c565b50565b62000d61600662000d55620006bd60201b60201c565b6200103c60201b60201c565b565b505050565b6000600e60008373ffffffffffffffffffffffffffffffffffffffff1673ffffffffffffffffffffffffffffffffffffffff16815260200190815260200160002060009054906101000a900473ffffffffffffffffffffffffffffffffffffffff169050919050565b8173ffffffffffffffffffffffffffffffffffffffff168373ffffffffffffffffffffffffffffffffffffffff161415801562000e0e5750600081115b1562000fef57600073ffffffffffffffffffffffffffffffffffffffff168373ffffffffffffffffffffffffffffffffffffffff161462000f015760008062000ea8600f60008773ffffffffffffffffffffffffffffffffffffffff1673ffffffffffffffffffffffffffffffffffffffff168152602001908152602001600020620010c860201b620017e51785620006df60201b60201c565b915091508473ffffffffffffffffffffffffffffffffffffffff167fdec2bacdd2f05b59de34da9b523dff8be42e5e38e818c82fdb0bae774387a724838360405162000ef6929190620019ed565b60405180910390a250505b600073ffffffffffffffffffffffffffffffffffffffff168273ffffffffffffffffffffffffffffffffffffffff161462000fee5760008062000f95600f60008673ffffffffffffffffffffffffffffffffffffffff1673ffffffffffffffffffffffffffffffffffffffff168152602001908152602001600020620006c760201b620015cd1785620006df60201b60201c565b915091508373ffffffffffffffffffffffffffffffffffffffff167fdec2bacdd2f05b59de34da9b523dff8be42e5e38e818c82fdb0bae774387a724838360405162000fe3929190620019ed565b60405180910390a250505b5b505050565b60008060008373ffffffffffffffffffffffffffffffffffffffff1673ffffffffffffffffffffffffffffffffffffffff168152602001908152602001600020549050919050565b60006200104e620010e060201b60201c565b9050806200106584600001620010fe60201b60201c565b1015620010c35782600001819080600181540180825580915050600190039060005260206000200160009091909190915055826001018290806001815401808255809150506001900390600052602060002001600090919091909150555b505050565b60008183620010d8919062001a1a565b905092915050565b6000620010f960086200115260201b620017fb1760201c565b905090565b600080828054905014156200111757600090506200114d565b81600183805490506200112b919062001a1a565b815481106200113f576200113e62001a55565b5b906000526020600020015490505b919050565b600081600001549050919050565b8280546200116e9062001ab3565b90600052602060002090601f016020900481019282620011925760008555620011de565b82601f10620011ad57805160ff1916838001178555620011de565b82800160010185558215620011de579182015b82811115620011dd578251825591602001919060010190620011c0565b5b509050620011ed9190620011f1565b5090565b5b808211156200120c576000816000905550600101620011f2565b5090565b7f4e487b7100000000000000000000000000000000000000000000000000000000600052601160045260246000fd5b60008160011c9050919050565b6000808291508390505b60018511156200129e5780860481111562001276576200127562001210565b5b6001851615620012865780820291505b808102905062001296856200123f565b945062001256565b94509492505050565b600082620012b957600190506200138c565b81620012c957600090506200138c565b8160018114620012e25760028114620012ed5762001323565b60019150506200138c565b60ff84111562001302576200130162001210565b5b8360020a9150848211156200131c576200131b62001210565b5b506200138c565b5060208310610133831016604e8410600b84101617156200135d5782820a90508381111562001357576200135662001210565b5b6200138c565b6200136c84848460016200124c565b9250905081840481111562001386576200138562001210565b5b81810290505b9392505050565b6000819050919050565b600060ff82169050919050565b6000620013b78262001393565b9150620013c4836200139d565b9250620013f37fffffffffffffffffffffffffffffffffffffffffffffffffffffffffffffffff8484620012a7565b905092915050565b6000620014088262001393565b9150620014158362001393565b9250817fffffffffffffffffffffffffffffffffffffffffffffffffffffffffffffffff048311821515161562001451576200145062001210565b5b828202905092915050565b6000819050919050565b62001471816200145c565b82525050565b620014828162001393565b82525050565b600073ffffffffffffffffffffffffffffffffffffffff82169050919050565b6000620014b58262001488565b9050919050565b620014c781620014a8565b82525050565b600060a082019050620014e4600083018862001466565b620014f3602083018762001466565b62001502604083018662001466565b62001511606083018562001477565b620015206080830184620014bc565b9695505050505050565b600081519050919050565b600082825260208201905092915050565b60005b838110156200156657808201518184015260208101905062001549565b8381111562001576576000848401525b50505050565b6000601f19601f8301169050919050565b60006200159a826200152a565b620015a6818562001535565b9350620015b881856020860162001546565b620015c3816200157c565b840191505092915050565b60006020820190508181036000830152620015ea81846200158d565b905092915050565b600081519050919050565b6000819050602082019050919050565b60006200161b82516200145c565b80915050919050565b600082821b905092915050565b60006200163e82620015f2565b826200164a84620015fd565b905062001657816200160d565b925060208210156200169a57620016957fffffffffffffffffffffffffffffffffffffffffffffffffffffffffffffffff8360200360080262001624565b831692505b5050919050565b7f4552433230566f7465733a20746f74616c20737570706c79207269736b73206f60008201527f766572666c6f77696e6720766f74657300000000000000000000000000000000602082015250565b6000620016ff60308362001535565b91506200170c82620016a1565b604082019050919050565b600060208201905081810360008301526200173281620016f0565b9050919050565b7f45524332303a206d696e7420746f20746865207a65726f206164647265737300600082015250565b600062001771601f8362001535565b91506200177e8262001739565b602082019050919050565b60006020820190508181036000830152620017a48162001762565b9050919050565b6000620017b88262001393565b9150620017c58362001393565b9250827fffffffffffffffffffffffffffffffffffffffffffffffffffffffffffffffff03821115620017fd57620017fc62001210565b5b828201905092915050565b60006020820190506200181f600083018462001477565b92915050565b7f53616665436173743a2076616c756520646f65736e27742066697420696e203260008201527f3234206269747300000000000000000000000000000000000000000000000000602082015250565b60006200188360278362001535565b9150620018908262001825565b604082019050919050565b60006020820190508181036000830152620018b68162001874565b9050919050565b7f53616665436173743a2076616c756520646f65736e27742066697420696e203360008201527f3220626974730000000000000000000000000000000000000000000000000000602082015250565b60006200191b60268362001535565b91506200192882620018bd565b604082019050919050565b600060208201905081810360008301526200194e816200190c565b9050919050565b7f53616665436173743a2076616c756520646f65736e27742066697420696e203460008201527f3820626974730000000000000000000000000000000000000000000000000000602082015250565b6000620019b360268362001535565b9150620019c08262001955565b604082019050919050565b60006020820190508181036000830152620019e681620019a4565b9050919050565b600060408201905062001a04600083018562001477565b62001a13602083018462001477565b9392505050565b600062001a278262001393565b915062001a348362001393565b92508282101562001a4a5762001a4962001210565b5b828203905092915050565b7f4e487b7100000000000000000000000000000000000000000000000000000000600052603260045260246000fd5b7f4e487b7100000000000000000000000000000000000000000000000000000000600052602260045260246000fd5b6000600282049050600182168062001acc57607f821691505b6020821081141562001ae35762001ae262001a84565b5b50919050565b60805160a05160c05160601c60e051610100516101205161014051614b2a62001b476000396000610b6101526000610b2d01526000612a17015260006129f601526000611ce401526000611d3a01526000611d630152614b2a6000f3fe608060405234801561001057600080fd5b50600436106101f05760003560e01c80637ecebe001161010f5780639ab24eb0116100a2578063d505accf11610071578063d505accf14610611578063dd62ed3e1461062d578063f1127ed81461065d578063f2fde38b1461068d576101f0565b80639ab24eb014610565578063a457c2d714610595578063a9059cbb146105c5578063c3cda520146105f5576101f0565b806391ddadf4116100de57806391ddadf4146104ef57806395d89b411461050d5780639711715a1461052b578063981b24d014610535576101f0565b80637ecebe001461044d57806384b0196e1461047d5780638da5cb5b146104a15780638e539e8c146104bf576101f0565b806340c10f19116101875780635c19a95c116101565780635c19a95c146103c75780636fcfff45146103e357806370a0823114610413578063715018a614610443576101f0565b806340c10f191461032d5780634bf5d7e9146103495780634ee2cd7e14610367578063587cde1e14610397576101f0565b8063313ce567116101c3578063313ce567146102915780633644e515146102af57806339509351146102cd5780633a46b1a8146102fd576101f0565b806306fdde03146101f5578063095ea7b31461021357806318160ddd1461024357806323b872dd14610261575b600080fd5b6101fd6106a9565b60405161020a919061333b565b60405180910390f35b61022d600480360381019061022891906133f6565b61073b565b60405161023a9190613451565b60405180910390f35b61024b61075e565b604051610258919061347b565b60405180910390f35b61027b60048036038101906102769190613496565b610768565b6040516102889190613451565b60405180910390f35b610299610797565b6040516102a69190613505565b60405180910390f35b6102b76107a0565b6040516102c49190613539565b60405180910390f35b6102e760048036038101906102e291906133f6565b6107af565b6040516102f49190613451565b60405180910390f35b610317600480360381019061031291906133f6565b6107e6565b604051610324919061347b565b60405180910390f35b610347600480360381019061034291906133f6565b610889565b005b61035161089f565b60405161035e919061333b565b60405180910390f35b610381600480360381019061037c91906133f6565b61092d565b60405161038e919061347b565b60405180910390f35b6103b160048036038101906103ac9190613554565b61099d565b6040516103be9190613590565b60405180910390f35b6103e160048036038101906103dc9190613554565b610a06565b005b6103fd60048036038101906103f89190613554565b610a1a565b60405161040a91906135ca565b60405180910390f35b61042d60048036038101906104289190613554565b610a6e565b60405161043a919061347b565b60405180910390f35b61044b610ab6565b005b61046760048036038101906104629190613554565b610aca565b604051610474919061347b565b60405180910390f35b610485610b1a565b60405161049897969594939291906136de565b60405180910390f35b6104a9610c1c565b6040516104b69190613590565b60405180910390f35b6104d960048036038101906104d49190613762565b610c46565b6040516104e6919061347b565b60405180910390f35b6104f7610cab565b60405161050491906137b0565b60405180910390f35b610515610cbb565b604051610522919061333b565b60405180910390f35b610533610d4d565b005b61054f600480360381019061054a9190613762565b610d60565b60405161055c919061347b565b60405180910390f35b61057f600480360381019061057a9190613554565b610d91565b60405161058c919061347b565b60405180910390f35b6105af60048036038101906105aa91906133f6565b610e99565b6040516105bc9190613451565b60405180910390f35b6105df60048036038101906105da91906133f6565b610f10565b6040516105ec9190613451565b60405180910390f35b61060f600480360381019061060a9190613823565b610f33565b005b61062b600480360381019061062691906138b0565b611037565b005b61064760048036038101906106429190613952565b611179565b604051610654919061347b565b60405180910390f35b610677600480360381019061067291906139be565b611200565b6040516106849190613a73565b60405180910390f35b6106a760048036038101906106a29190613554565b611310565b005b6060600380546106b890613abd565b80601f01602080910402602001604051908101604052809291908181526020018280546106e490613abd565b80156107315780601f1061070657610100808354040283529160200191610731565b820191906000526020600020905b81548152906001019060200180831161071457829003601f168201915b5050505050905090565b600080610746611809565b9050610753818585611811565b600191505092915050565b6000600254905090565b600080610773611809565b90506107808582856119dc565b61078b858585611a68565b60019150509392505050565b60006012905090565b60006107aa611ce0565b905090565b6000806107ba611809565b90506107db8185856107cc8589611179565b6107d69190613b1e565b611811565b600191505092915050565b60006107f0610cab565b65ffffffffffff168210610839576040517f08c379a000000000000000000000000000000000000000000000000000000000815260040161083090613bc0565b60405180910390fd5b610881600f60008573ffffffffffffffffffffffffffffffffffffffff1673ffffffffffffffffffffffffffffffffffffffff16815260200190815260200160002083611d97565b905092915050565b610891611edf565b61089b8282611f5d565b5050565b6060436108aa610cab565b65ffffffffffff16146108f2576040517f08c379a00000000000000000000000000000000000000000000000000000000081526004016108e990613c2c565b60405180910390fd5b6040518060400160405280601d81526020017f6d6f64653d626c6f636b6e756d6265722666726f6d3d64656661756c74000000815250905090565b600080600061097a84600560008873ffffffffffffffffffffffffffffffffffffffff1673ffffffffffffffffffffffffffffffffffffffff168152602001908152602001600020611f6b565b91509150816109915761098c85610a6e565b610993565b805b9250505092915050565b6000600e60008373ffffffffffffffffffffffffffffffffffffffff1673ffffffffffffffffffffffffffffffffffffffff16815260200190815260200160002060009054906101000a900473ffffffffffffffffffffffffffffffffffffffff169050919050565b610a17610a11611809565b82612061565b50565b6000610a67600f60008473ffffffffffffffffffffffffffffffffffffffff1673ffffffffffffffffffffffffffffffffffffffff1681526020019081526020016000208054905061164e565b9050919050565b60008060008373ffffffffffffffffffffffffffffffffffffffff1673ffffffffffffffffffffffffffffffffffffffff168152602001908152602001600020549050919050565b610abe611edf565b610ac8600061217b565b565b6000610b13600c60008473ffffffffffffffffffffffffffffffffffffffff1673ffffffffffffffffffffffffffffffffffffffff1681526020019081526020016000206117fb565b9050919050565b600060608060008060006060610b5a600a7f000000000000000000000000000000000000000000000000000000000000000061224190919063ffffffff16565b610b8e600b7f000000000000000000000000000000000000000000000000000000000000000061224190919063ffffffff16565b46306000801b600067ffffffffffffffff811115610baf57610bae613c4c565b5b604051908082528060200260200182016040528015610bdd5781602001602082028036833780820191505090505b507f0f00000000000000000000000000000000000000000000000000000000000000959493929190965096509650965096509650965090919293949596565b6000600960009054906101000a900473ffffffffffffffffffffffffffffffffffffffff16905090565b6000610c50610cab565b65ffffffffffff168210610c99576040517f08c379a0000000000000000000000000000000000000000000000000000000008152600401610c9090613bc0565b60405180910390fd5b610ca4601083611d97565b9050919050565b6000610cb643611786565b905090565b606060048054610cca90613abd565b80601f0160208091040260200160405190810160405280929190818152602001828054610cf690613abd565b8015610d435780601f10610d1857610100808354040283529160200191610d43565b820191906000526020600020905b815481529060010190602001808311610d2657829003601f168201915b5050505050905090565b610d55611edf565b610d5d6122f1565b50565b6000806000610d70846006611f6b565b9150915081610d8657610d8161075e565b610d88565b805b92505050919050565b600080600f60008473ffffffffffffffffffffffffffffffffffffffff1673ffffffffffffffffffffffffffffffffffffffff16815260200190815260200160002080549050905060008114610e7057600f60008473ffffffffffffffffffffffffffffffffffffffff1673ffffffffffffffffffffffffffffffffffffffff1681526020019081526020016000206001820381548110610e3557610e34613c7b565b5b9060005260206000200160000160049054906101000a90047bffffffffffffffffffffffffffffffffffffffffffffffffffffffff16610e73565b60005b7bffffffffffffffffffffffffffffffffffffffffffffffffffffffff16915050919050565b600080610ea4611809565b90506000610eb28286611179565b905083811015610ef7576040517f08c379a0000000000000000000000000000000000000000000000000000000008152600401610eee90613d1c565b60405180910390fd5b610f048286868403611811565b60019250505092915050565b600080610f1b611809565b9050610f28818585611a68565b600191505092915050565b83421115610f76576040517f08c379a0000000000000000000000000000000000000000000000000000000008152600401610f6d90613d88565b60405180910390fd5b6000610fd8610fd07fe48329057bfd03d55e49b547132e39cffd9c1820ad7b9d4c5307691425d15adf898989604051602001610fb59493929190613da8565b60405160208183030381529060405280519060200120612347565b858585612361565b9050610fe38161238c565b8614611024576040517f08c379a000000000000000000000000000000000000000000000000000000000815260040161101b90613e39565b60405180910390fd5b61102e8188612061565b50505050505050565b8342111561107a576040517f08c379a000000000000000000000000000000000000000000000000000000000815260040161107190613ea5565b60405180910390fd5b60007f6e71edae12b1b97f4d1f60370fef10105fa2faae0126114a169c64845d6126c98888886110a98c61238c565b896040516020016110bf96959493929190613ec5565b60405160208183030381529060405280519060200120905060006110e282612347565b905060006110f282878787612361565b90508973ffffffffffffffffffffffffffffffffffffffff168173ffffffffffffffffffffffffffffffffffffffff1614611162576040517f08c379a000000000000000000000000000000000000000000000000000000000815260040161115990613f72565b60405180910390fd5b61116d8a8a8a611811565b50505050505050505050565b6000600160008473ffffffffffffffffffffffffffffffffffffffff1673ffffffffffffffffffffffffffffffffffffffff16815260200190815260200160002060008373ffffffffffffffffffffffffffffffffffffffff1673ffffffffffffffffffffffffffffffffffffffff16815260200190815260200160002054905092915050565b6112086131c1565b600f60008473ffffffffffffffffffffffffffffffffffffffff1673ffffffffffffffffffffffffffffffffffffffff1681526020019081526020016000208263ffffffff168154811061125f5761125e613c7b565b5b906000526020600020016040518060400160405290816000820160009054906101000a900463ffffffff1663ffffffff1663ffffffff1681526020016000820160049054906101000a90047bffffffffffffffffffffffffffffffffffffffffffffffffffffffff167bffffffffffffffffffffffffffffffffffffffffffffffffffffffff167bffffffffffffffffffffffffffffffffffffffffffffffffffffffff1681525050905092915050565b611318611edf565b600073ffffffffffffffffffffffffffffffffffffffff168173ffffffffffffffffffffffffffffffffffffffff161415611388576040517f08c379a000000000000000000000000000000000000000000000000000000000815260040161137f90614004565b60405180910390fd5b6113918161217b565b50565b60006020835110156113b0576113a9836123ea565b90506113d9565b826113ba836113df565b60000190805190602001906113d09291906131ff565b5060ff60001b90505b92915050565b6000819050919050565b6113f38282611476565b6113fb612452565b7bffffffffffffffffffffffffffffffffffffffffffffffffffffffff1661142161075e565b1115611462576040517f08c379a000000000000000000000000000000000000000000000000000000000815260040161145990614096565b60405180910390fd5b61147060106115cd83612476565b50505050565b600073ffffffffffffffffffffffffffffffffffffffff168273ffffffffffffffffffffffffffffffffffffffff1614156114e6576040517f08c379a00000000000000000000000000000000000000000000000000000000081526004016114dd90614102565b60405180910390fd5b6114f260008383612751565b80600260008282546115049190613b1e565b92505081905550806000808473ffffffffffffffffffffffffffffffffffffffff1673ffffffffffffffffffffffffffffffffffffffff168152602001908152602001600020600082825401925050819055508173ffffffffffffffffffffffffffffffffffffffff16600073ffffffffffffffffffffffffffffffffffffffff167fddf252ad1be2c89b69c2b068fc378daa952ba7f163c4a11628f55a4df523b3ef836040516115b5919061347b565b60405180910390a36115c960008383612761565b5050565b600081836115db9190613b1e565b905092915050565b60007bffffffffffffffffffffffffffffffffffffffffffffffffffffffff8016821115611646576040517f08c379a000000000000000000000000000000000000000000000000000000000815260040161163d90614194565b60405180910390fd5b819050919050565b600063ffffffff8016821115611699576040517f08c379a000000000000000000000000000000000000000000000000000000000815260040161169090614226565b60405180910390fd5b819050919050565b6116ac8383836117db565b600073ffffffffffffffffffffffffffffffffffffffff168373ffffffffffffffffffffffffffffffffffffffff1614156116f7576116ea82612771565b6116f26127c4565b611756565b600073ffffffffffffffffffffffffffffffffffffffff168273ffffffffffffffffffffffffffffffffffffffff1614156117425761173583612771565b61173d6127c4565b611755565b61174b83612771565b61175482612771565b5b5b505050565b6117668383836117e0565b6117816117728461099d565b61177b8461099d565b836127d8565b505050565b600065ffffffffffff80168211156117d3576040517f08c379a00000000000000000000000000000000000000000000000000000000081526004016117ca906142b8565b60405180910390fd5b819050919050565b505050565b505050565b600081836117f391906142d8565b905092915050565b600081600001549050919050565b600033905090565b600073ffffffffffffffffffffffffffffffffffffffff168373ffffffffffffffffffffffffffffffffffffffff161415611881576040517f08c379a00000000000000000000000000000000000000000000000000000000081526004016118789061437e565b60405180910390fd5b600073ffffffffffffffffffffffffffffffffffffffff168273ffffffffffffffffffffffffffffffffffffffff1614156118f1576040517f08c379a00000000000000000000000000000000000000000000000000000000081526004016118e890614410565b60405180910390fd5b80600160008573ffffffffffffffffffffffffffffffffffffffff1673ffffffffffffffffffffffffffffffffffffffff16815260200190815260200160002060008473ffffffffffffffffffffffffffffffffffffffff1673ffffffffffffffffffffffffffffffffffffffff168152602001908152602001600020819055508173ffffffffffffffffffffffffffffffffffffffff168373ffffffffffffffffffffffffffffffffffffffff167f8c5be1e5ebec7d5bd14f71427d1e84f3dd0314c0f7b2291e5b200ac8c7c3b925836040516119cf919061347b565b60405180910390a3505050565b60006119e88484611179565b90507fffffffffffffffffffffffffffffffffffffffffffffffffffffffffffffffff8114611a625781811015611a54576040517f08c379a0000000000000000000000000000000000000000000000000000000008152600401611a4b9061447c565b60405180910390fd5b611a618484848403611811565b5b50505050565b600073ffffffffffffffffffffffffffffffffffffffff168373ffffffffffffffffffffffffffffffffffffffff161415611ad8576040517f08c379a0000000000000000000000000000000000000000000000000000000008152600401611acf9061450e565b60405180910390fd5b600073ffffffffffffffffffffffffffffffffffffffff168273ffffffffffffffffffffffffffffffffffffffff161415611b48576040517f08c379a0000000000000000000000000000000000000000000000000000000008152600401611b3f906145a0565b60405180910390fd5b611b53838383612751565b60008060008573ffffffffffffffffffffffffffffffffffffffff1673ffffffffffffffffffffffffffffffffffffffff16815260200190815260200160002054905081811015611bd9576040517f08c379a0000000000000000000000000000000000000000000000000000000008152600401611bd090614632565b60405180910390fd5b8181036000808673ffffffffffffffffffffffffffffffffffffffff1673ffffffffffffffffffffffffffffffffffffffff16815260200190815260200160002081905550816000808573ffffffffffffffffffffffffffffffffffffffff1673ffffffffffffffffffffffffffffffffffffffff168152602001908152602001600020600082825401925050819055508273ffffffffffffffffffffffffffffffffffffffff168473ffffffffffffffffffffffffffffffffffffffff167fddf252ad1be2c89b69c2b068fc378daa952ba7f163c4a11628f55a4df523b3ef84604051611cc7919061347b565b60405180910390a3611cda848484612761565b50505050565b60007f000000000000000000000000000000000000000000000000000000000000000073ffffffffffffffffffffffffffffffffffffffff163073ffffffffffffffffffffffffffffffffffffffff16148015611d5c57507f000000000000000000000000000000000000000000000000000000000000000046145b15611d89577f00000000000000000000000000000000000000000000000000000000000000009050611d94565b611d916129d1565b90505b90565b600080838054905090506000808290506005831115611e0d576000611dbb84612a67565b84611dc691906142d8565b905085611dd38883612b61565b60000160009054906101000a900463ffffffff1663ffffffff161115611dfb57809150611e0b565b600181611e089190613b1e565b92505b505b5b80821015611e6d576000611e228383612b76565b905085611e2f8883612b61565b60000160009054906101000a900463ffffffff1663ffffffff161115611e5757809150611e67565b600181611e649190613b1e565b92505b50611e0e565b60008114611eb357611e828660018303612b61565b60000160049054906101000a90047bffffffffffffffffffffffffffffffffffffffffffffffffffffffff16611eb6565b60005b7bffffffffffffffffffffffffffffffffffffffffffffffffffffffff16935050505092915050565b611ee7611809565b73ffffffffffffffffffffffffffffffffffffffff16611f05610c1c565b73ffffffffffffffffffffffffffffffffffffffff1614611f5b576040517f08c379a0000000000000000000000000000000000000000000000000000000008152600401611f529061469e565b60405180910390fd5b565b611f6782826113e9565b5050565b60008060008411611fb1576040517f08c379a0000000000000000000000000000000000000000000000000000000008152600401611fa89061470a565b60405180910390fd5b611fb9612b9c565b841115611ffb576040517f08c379a0000000000000000000000000000000000000000000000000000000008152600401611ff290614776565b60405180910390fd5b60006120138585600001612bad90919063ffffffff16565b9050836000018054905081141561203157600080925092505061205a565b600184600101828154811061204957612048613c7b565b5b906000526020600020015492509250505b9250929050565b600061206c8361099d565b9050600061207984610a6e565b905082600e60008673ffffffffffffffffffffffffffffffffffffffff1673ffffffffffffffffffffffffffffffffffffffff16815260200190815260200160002060006101000a81548173ffffffffffffffffffffffffffffffffffffffff021916908373ffffffffffffffffffffffffffffffffffffffff1602179055508273ffffffffffffffffffffffffffffffffffffffff168273ffffffffffffffffffffffffffffffffffffffff168573ffffffffffffffffffffffffffffffffffffffff167f3134e8a2e6d97e929a7e54011ea5485d7d196dd5f0ba4d4ef95803e8e3fc257f60405160405180910390a46121758284836127d8565b50505050565b6000600960009054906101000a900473ffffffffffffffffffffffffffffffffffffffff16905081600960006101000a81548173ffffffffffffffffffffffffffffffffffffffff021916908373ffffffffffffffffffffffffffffffffffffffff1602179055508173ffffffffffffffffffffffffffffffffffffffff168173ffffffffffffffffffffffffffffffffffffffff167f8be0079c531659141344cd1fd0a4f28419497f9722a3daafe3b4186f6b6457e060405160405180910390a35050565b606060ff60001b831461225e5761225783612c67565b90506122eb565b81805461226a90613abd565b80601f016020809104026020016040519081016040528092919081815260200182805461229690613abd565b80156122e35780601f106122b8576101008083540402835291602001916122e3565b820191906000526020600020905b8154815290600101906020018083116122c657829003601f168201915b505050505090505b92915050565b60006122fd6008612cdb565b6000612307612b9c565b90507f8030e83b04d87bef53480e26263266d6ca66863aa8506aca6f2559d18aa1cb6781604051612338919061347b565b60405180910390a18091505090565b600061235a612354611ce0565b83612cf1565b9050919050565b600080600061237287878787612d32565b9150915061237f81612e15565b8192505050949350505050565b600080600c60008473ffffffffffffffffffffffffffffffffffffffff1673ffffffffffffffffffffffffffffffffffffffff16815260200190815260200160002090506123d9816117fb565b91506123e481612cdb565b50919050565b600080829050601f8151111561243757826040517f305a27a900000000000000000000000000000000000000000000000000000000815260040161242e919061333b565b60405180910390fd5b805181612443906147d3565b60001c1760001b915050919050565b60007bffffffffffffffffffffffffffffffffffffffffffffffffffffffff905090565b600080600085805490509050600080821461253c576124988760018403612b61565b6040518060400160405290816000820160009054906101000a900463ffffffff1663ffffffff1663ffffffff1681526020016000820160049054906101000a90047bffffffffffffffffffffffffffffffffffffffffffffffffffffffff167bffffffffffffffffffffffffffffffffffffffffffffffffffffffff167bffffffffffffffffffffffffffffffffffffffffffffffffffffffff1681525050612578565b6040518060400160405280600063ffffffff16815260200160007bffffffffffffffffffffffffffffffffffffffffffffffffffffffff168152505b905080602001517bffffffffffffffffffffffffffffffffffffffffffffffffffffffff1693506125ad84868863ffffffff16565b92506000821180156125d757506125c2610cab565b65ffffffffffff16816000015163ffffffff16145b15612648576125e5836115e3565b6125f28860018503612b61565b60000160046101000a8154817bffffffffffffffffffffffffffffffffffffffffffffffffffffffff02191690837bffffffffffffffffffffffffffffffffffffffffffffffffffffffff160217905550612747565b86604051806040016040528061266c61265f610cab565b65ffffffffffff1661164e565b63ffffffff168152602001612680866115e3565b7bffffffffffffffffffffffffffffffffffffffffffffffffffffffff168152509080600181540180825580915050600190039060005260206000200160009091909190915060008201518160000160006101000a81548163ffffffff021916908363ffffffff16021790555060208201518160000160046101000a8154817bffffffffffffffffffffffffffffffffffffffffffffffffffffffff02191690837bffffffffffffffffffffffffffffffffffffffffffffffffffffffff16021790555050505b5050935093915050565b61275c8383836116a1565b505050565b61276c83838361175b565b505050565b6127c1600560008373ffffffffffffffffffffffffffffffffffffffff1673ffffffffffffffffffffffffffffffffffffffff1681526020019081526020016000206127bc83610a6e565b612f83565b50565b6127d660066127d161075e565b612f83565b565b8173ffffffffffffffffffffffffffffffffffffffff168373ffffffffffffffffffffffffffffffffffffffff16141580156128145750600081115b156129cc57600073ffffffffffffffffffffffffffffffffffffffff168373ffffffffffffffffffffffffffffffffffffffff16146128f25760008061289b600f60008773ffffffffffffffffffffffffffffffffffffffff1673ffffffffffffffffffffffffffffffffffffffff1681526020019081526020016000206117e585612476565b915091508473ffffffffffffffffffffffffffffffffffffffff167fdec2bacdd2f05b59de34da9b523dff8be42e5e38e818c82fdb0bae774387a72483836040516128e792919061483a565b60405180910390a250505b600073ffffffffffffffffffffffffffffffffffffffff168273ffffffffffffffffffffffffffffffffffffffff16146129cb57600080612974600f60008673ffffffffffffffffffffffffffffffffffffffff1673ffffffffffffffffffffffffffffffffffffffff1681526020019081526020016000206115cd85612476565b915091508373ffffffffffffffffffffffffffffffffffffffff167fdec2bacdd2f05b59de34da9b523dff8be42e5e38e818c82fdb0bae774387a72483836040516129c092919061483a565b60405180910390a250505b5b505050565b60007f8b73c3c69bb8fe3d512ecc4cf759cc79239f7b179b0ffacaa9a75d522b39400f7f00000000000000000000000000000000000000000000000000000000000000007f00000000000000000000000000000000000000000000000000000000000000004630604051602001612a4c959493929190614863565b60405160208183030381529060405280519060200120905090565b600080821415612a7a5760009050612b5c565b60006001612a8784612ffe565b901c6001901b90506001818481612aa157612aa06148b6565b5b048201901c90506001818481612aba57612ab96148b6565b5b048201901c90506001818481612ad357612ad26148b6565b5b048201901c90506001818481612aec57612aeb6148b6565b5b048201901c90506001818481612b0557612b046148b6565b5b048201901c90506001818481612b1e57612b1d6148b6565b5b048201901c90506001818481612b3757612b366148b6565b5b048201901c9050612b5881828581612b5257612b516148b6565b5b046130df565b9150505b919050565b60008260005281602060002001905092915050565b60006002828418612b8791906148e5565b828416612b949190613b1e565b905092915050565b6000612ba860086117fb565b905090565b60008083805490501415612bc45760009050612c61565b600080848054905090505b80821015612c18576000612be38383612b76565b905084612bf087836130f8565b600001541115612c0257809150612c12565b600181612c0f9190613b1e565b92505b50612bcf565b600082118015612c40575083612c3a86600185612c3591906142d8565b6130f8565b60000154145b15612c5b57600182612c5291906142d8565b92505050612c61565b81925050505b92915050565b60606000612c748361311a565b90506000602067ffffffffffffffff811115612c9357612c92613c4c565b5b6040519080825280601f01601f191660200182016040528015612cc55781602001600182028036833780820191505090505b5090508181528360208201528092505050919050565b6001816000016000828254019250508190555050565b60006040517f190100000000000000000000000000000000000000000000000000000000000081528360028201528260228201526042812091505092915050565b6000807f7fffffffffffffffffffffffffffffff5d576e7357a4501ddfe92f46681b20a08360001c1115612d6d576000600391509150612e0c565b600060018787878760405160008152602001604052604051612d929493929190614916565b6020604051602081039080840390855afa158015612db4573d6000803e3d6000fd5b505050602060405103519050600073ffffffffffffffffffffffffffffffffffffffff168173ffffffffffffffffffffffffffffffffffffffff161415612e0357600060019250925050612e0c565b80600092509250505b94509492505050565b60006004811115612e2957612e2861495b565b5b816004811115612e3c57612e3b61495b565b5b1415612e4757612f80565b60016004811115612e5b57612e5a61495b565b5b816004811115612e6e57612e6d61495b565b5b1415612eaf576040517f08c379a0000000000000000000000000000000000000000000000000000000008152600401612ea6906149d6565b60405180910390fd5b60026004811115612ec357612ec261495b565b5b816004811115612ed657612ed561495b565b5b1415612f17576040517f08c379a0000000000000000000000000000000000000000000000000000000008152600401612f0e90614a42565b60405180910390fd5b60036004811115612f2b57612f2a61495b565b5b816004811115612f3e57612f3d61495b565b5b1415612f7f576040517f08c379a0000000000000000000000000000000000000000000000000000000008152600401612f7690614ad4565b60405180910390fd5b5b50565b6000612f8d612b9c565b905080612f9c8460000161316a565b1015612ff95782600001819080600181540180825580915050600190039060005260206000200160009091909190915055826001018290806001815401808255809150506001900390600052602060002001600090919091909150555b505050565b600080600090506000608084901c111561302057608083901c92506080810190505b6000604084901c111561303b57604083901c92506040810190505b6000602084901c111561305657602083901c92506020810190505b6000601084901c111561307157601083901c92506010810190505b6000600884901c111561308c57600883901c92506008810190505b6000600484901c11156130a757600483901c92506004810190505b6000600284901c11156130c257600283901c92506002810190505b6000600184901c11156130d6576001810190505b80915050919050565b60008183106130ee57816130f0565b825b905092915050565b60008083600052826020600020019050613111816131b7565b91505092915050565b60008060ff8360001c169050601f811115613161576040517fb3512b0c00000000000000000000000000000000000000000000000000000000815260040160405180910390fd5b80915050919050565b6000808280549050141561318157600090506131b2565b816001838054905061319391906142d8565b815481106131a4576131a3613c7b565b5b906000526020600020015490505b919050565b6000819050919050565b6040518060400160405280600063ffffffff16815260200160007bffffffffffffffffffffffffffffffffffffffffffffffffffffffff1681525090565b82805461320b90613abd565b90600052602060002090601f01602090048101928261322d5760008555613274565b82601f1061324657805160ff1916838001178555613274565b82800160010185558215613274579182015b82811115613273578251825591602001919060010190613258565b5b5090506132819190613285565b5090565b5b8082111561329e576000816000905550600101613286565b5090565b600081519050919050565b600082825260208201905092915050565b60005b838110156132dc5780820151818401526020810190506132c1565b838111156132eb576000848401525b50505050565b6000601f19601f8301169050919050565b600061330d826132a2565b61331781856132ad565b93506133278185602086016132be565b613330816132f1565b840191505092915050565b600060208201905081810360008301526133558184613302565b905092915050565b600080fd5b600073ffffffffffffffffffffffffffffffffffffffff82169050919050565b600061338d82613362565b9050919050565b61339d81613382565b81146133a857600080fd5b50565b6000813590506133ba81613394565b92915050565b6000819050919050565b6133d3816133c0565b81146133de57600080fd5b50565b6000813590506133f0816133ca565b92915050565b6000806040838503121561340d5761340c61335d565b5b600061341b858286016133ab565b925050602061342c858286016133e1565b9150509250929050565b60008115159050919050565b61344b81613436565b82525050565b60006020820190506134666000830184613442565b92915050565b613475816133c0565b82525050565b6000602082019050613490600083018461346c565b92915050565b6000806000606084860312156134af576134ae61335d565b5b60006134bd868287016133ab565b93505060206134ce868287016133ab565b92505060406134df868287016133e1565b9150509250925092565b600060ff82169050919050565b6134ff816134e9565b82525050565b600060208201905061351a60008301846134f6565b92915050565b6000819050919050565b61353381613520565b82525050565b600060208201905061354e600083018461352a565b92915050565b60006020828403121561356a5761356961335d565b5b6000613578848285016133ab565b91505092915050565b61358a81613382565b82525050565b60006020820190506135a56000830184613581565b92915050565b600063ffffffff82169050919050565b6135c4816135ab565b82525050565b60006020820190506135df60008301846135bb565b92915050565b60007fff0000000000000000000000000000000000000000000000000000000000000082169050919050565b61361a816135e5565b82525050565b600081519050919050565b600082825260208201905092915050565b6000819050602082019050919050565b613655816133c0565b82525050565b6000613667838361364c565b60208301905092915050565b6000602082019050919050565b600061368b82613620565b613695818561362b565b93506136a08361363c565b8060005b838110156136d15781516136b8888261365b565b97506136c383613673565b9250506001810190506136a4565b5085935050505092915050565b600060e0820190506136f3600083018a613611565b81810360208301526137058189613302565b905081810360408301526137198188613302565b9050613728606083018761346c565b6137356080830186613581565b61374260a083018561352a565b81810360c08301526137548184613680565b905098975050505050505050565b6000602082840312156137785761377761335d565b5b6000613786848285016133e1565b91505092915050565b600065ffffffffffff82169050919050565b6137aa8161378f565b82525050565b60006020820190506137c560008301846137a1565b92915050565b6137d4816134e9565b81146137df57600080fd5b50565b6000813590506137f1816137cb565b92915050565b61380081613520565b811461380b57600080fd5b50565b60008135905061381d816137f7565b92915050565b60008060008060008060c087890312156138405761383f61335d565b5b600061384e89828a016133ab565b965050602061385f89828a016133e1565b955050604061387089828a016133e1565b945050606061388189828a016137e2565b935050608061389289828a0161380e565b92505060a06138a389828a0161380e565b9150509295509295509295565b600080600080600080600060e0888a0312156138cf576138ce61335d565b5b60006138dd8a828b016133ab565b97505060206138ee8a828b016133ab565b96505060406138ff8a828b016133e1565b95505060606139108a828b016133e1565b94505060806139218a828b016137e2565b93505060a06139328a828b0161380e565b92505060c06139438a828b0161380e565b91505092959891949750929550565b600080604083850312156139695761396861335d565b5b6000613977858286016133ab565b9250506020613988858286016133ab565b9150509250929050565b61399b816135ab565b81146139a657600080fd5b50565b6000813590506139b881613992565b92915050565b600080604083850312156139d5576139d461335d565b5b60006139e3858286016133ab565b92505060206139f4858286016139a9565b9150509250929050565b613a07816135ab565b82525050565b60007bffffffffffffffffffffffffffffffffffffffffffffffffffffffff82169050919050565b613a3e81613a0d565b82525050565b604082016000820151613a5a60008501826139fe565b506020820151613a6d6020850182613a35565b50505050565b6000604082019050613a886000830184613a44565b92915050565b7f4e487b7100000000000000000000000000000000000000000000000000000000600052602260045260246000fd5b60006002820490506001821680613ad557607f821691505b60208210811415613ae957613ae8613a8e565b5b50919050565b7f4e487b7100000000000000000000000000000000000000000000000000000000600052601160045260246000fd5b6000613b29826133c0565b9150613b34836133c0565b9250827fffffffffffffffffffffffffffffffffffffffffffffffffffffffffffffffff03821115613b6957613b68613aef565b5b828201905092915050565b7f4552433230566f7465733a20667574757265206c6f6f6b757000000000000000600082015250565b6000613baa6019836132ad565b9150613bb582613b74565b602082019050919050565b60006020820190508181036000830152613bd981613b9d565b9050919050565b7f4552433230566f7465733a2062726f6b656e20636c6f636b206d6f6465000000600082015250565b6000613c16601d836132ad565b9150613c2182613be0565b602082019050919050565b60006020820190508181036000830152613c4581613c09565b9050919050565b7f4e487b7100000000000000000000000000000000000000000000000000000000600052604160045260246000fd5b7f4e487b7100000000000000000000000000000000000000000000000000000000600052603260045260246000fd5b7f45524332303a2064656372656173656420616c6c6f77616e63652062656c6f7760008201527f207a65726f000000000000000000000000000000000000000000000000000000602082015250565b6000613d066025836132ad565b9150613d1182613caa565b604082019050919050565b60006020820190508181036000830152613d3581613cf9565b9050919050565b7f4552433230566f7465733a207369676e61747572652065787069726564000000600082015250565b6000613d72601d836132ad565b9150613d7d82613d3c565b602082019050919050565b60006020820190508181036000830152613da181613d65565b9050919050565b6000608082019050613dbd600083018761352a565b613dca6020830186613581565b613dd7604083018561346c565b613de4606083018461346c565b95945050505050565b7f4552433230566f7465733a20696e76616c6964206e6f6e636500000000000000600082015250565b6000613e236019836132ad565b9150613e2e82613ded565b602082019050919050565b60006020820190508181036000830152613e5281613e16565b9050919050565b7f45524332305065726d69743a206578706972656420646561646c696e65000000600082015250565b6000613e8f601d836132ad565b9150613e9a82613e59565b602082019050919050565b60006020820190508181036000830152613ebe81613e82565b9050919050565b600060c082019050613eda600083018961352a565b613ee76020830188613581565b613ef46040830187613581565b613f01606083018661346c565b613f0e608083018561346c565b613f1b60a083018461346c565b979650505050505050565b7f45524332305065726d69743a20696e76616c6964207369676e61747572650000600082015250565b6000613f5c601e836132ad565b9150613f6782613f26565b602082019050919050565b60006020820190508181036000830152613f8b81613f4f565b9050919050565b7f4f776e61626c653a206e6577206f776e657220697320746865207a65726f206160008201527f6464726573730000000000000000000000000000000000000000000000000000602082015250565b6000613fee6026836132ad565b9150613ff982613f92565b604082019050919050565b6000602082019050818103600083015261401d81613fe1565b9050919050565b7f4552433230566f7465733a20746f74616c20737570706c79207269736b73206f60008201527f766572666c6f77696e6720766f74657300000000000000000000000000000000602082015250565b60006140806030836132ad565b915061408b82614024565b604082019050919050565b600060208201905081810360008301526140af81614073565b9050919050565b7f45524332303a206d696e7420746f20746865207a65726f206164647265737300600082015250565b60006140ec601f836132ad565b91506140f7826140b6565b602082019050919050565b6000602082019050818103600083015261411b816140df565b9050919050565b7f53616665436173743a2076616c756520646f65736e27742066697420696e203260008201527f3234206269747300000000000000000000000000000000000000000000000000602082015250565b600061417e6027836132ad565b915061418982614122565b604082019050919050565b600060208201905081810360008301526141ad81614171565b9050919050565b7f53616665436173743a2076616c756520646f65736e27742066697420696e203360008201527f3220626974730000000000000000000000000000000000000000000000000000602082015250565b60006142106026836132ad565b915061421b826141b4565b604082019050919050565b6000602082019050818103600083015261423f81614203565b9050919050565b7f53616665436173743a2076616c756520646f65736e27742066697420696e203460008201527f3820626974730000000000000000000000000000000000000000000000000000602082015250565b60006142a26026836132ad565b91506142ad82614246565b604082019050919050565b600060208201905081810360008301526142d181614295565b9050919050565b60006142e3826133c0565b91506142ee836133c0565b92508282101561430157614300613aef565b5b828203905092915050565b7f45524332303a20617070726f76652066726f6d20746865207a65726f2061646460008201527f7265737300000000000000000000000000000000000000000000000000000000602082015250565b60006143686024836132ad565b91506143738261430c565b604082019050919050565b600060208201905081810360008301526143978161435b565b9050919050565b7f45524332303a20617070726f766520746f20746865207a65726f20616464726560008201527f7373000000000000000000000000000000000000000000000000000000000000602082015250565b60006143fa6022836132ad565b91506144058261439e565b604082019050919050565b60006020820190508181036000830152614429816143ed565b9050919050565b7f45524332303a20696e73756666696369656e7420616c6c6f77616e6365000000600082015250565b6000614466601d836132ad565b915061447182614430565b602082019050919050565b6000602082019050818103600083015261449581614459565b9050919050565b7f45524332303a207472616e736665722066726f6d20746865207a65726f20616460008201527f6472657373000000000000000000000000000000000000000000000000000000602082015250565b60006144f86025836132ad565b91506145038261449c565b604082019050919050565b60006020820190508181036000830152614527816144eb565b9050919050565b7f45524332303a207472616e7366657220746f20746865207a65726f206164647260008201527f6573730000000000000000000000000000000000000000000000000000000000602082015250565b600061458a6023836132ad565b91506145958261452e565b604082019050919050565b600060208201905081810360008301526145b98161457d565b9050919050565b7f45524332303a207472616e7366657220616d6f756e742065786365656473206260008201527f616c616e63650000000000000000000000000000000000000000000000000000602082015250565b600061461c6026836132ad565b9150614627826145c0565b604082019050919050565b6000602082019050818103600083015261464b8161460f565b9050919050565b7f4f776e61626c653a2063616c6c6572206973206e6f7420746865206f776e6572600082015250565b60006146886020836132ad565b915061469382614652565b602082019050919050565b600060208201905081810360008301526146b78161467b565b9050919050565b7f4552433230536e617073686f743a206964206973203000000000000000000000600082015250565b60006146f46016836132ad565b91506146ff826146be565b602082019050919050565b60006020820190508181036000830152614723816146e7565b9050919050565b7f4552433230536e617073686f743a206e6f6e6578697374656e74206964000000600082015250565b6000614760601d836132ad565b915061476b8261472a565b602082019050919050565b6000602082019050818103600083015261478f81614753565b9050919050565b600081519050919050565b6000819050602082019050919050565b60006147bd8251613520565b80915050919050565b600082821b905092915050565b60006147de82614796565b826147e8846147a1565b90506147f3816147b1565b925060208210156148335761482e7fffffffffffffffffffffffffffffffffffffffffffffffffffffffffffffffff836020036008026147c6565b831692505b5050919050565b600060408201905061484f600083018561346c565b61485c602083018461346c565b9392505050565b600060a082019050614878600083018861352a565b614885602083018761352a565b614892604083018661352a565b61489f606083018561346c565b6148ac6080830184613581565b9695505050505050565b7f4e487b7100000000000000000000000000000000000000000000000000000000600052601260045260246000fd5b60006148f0826133c0565b91506148fb836133c0565b92508261490b5761490a6148b6565b5b828204905092915050565b600060808201905061492b600083018761352a565b61493860208301866134f6565b614945604083018561352a565b614952606083018461352a565b95945050505050565b7f4e487b7100000000000000000000000000000000000000000000000000000000600052602160045260246000fd5b7f45434453413a20696e76616c6964207369676e61747572650000000000000000600082015250565b60006149c06018836132ad565b91506149cb8261498a565b602082019050919050565b600060208201905081810360008301526149ef816149b3565b9050919050565b7f45434453413a20696e76616c6964207369676e6174757265206c656e67746800600082015250565b6000614a2c601f836132ad565b9150614a37826149f6565b602082019050919050565b60006020820190508181036000830152614a5b81614a1f565b9050919050565b7f45434453413a20696e76616c6964207369676e6174757265202773272076616c60008201527f7565000000000000000000000000000000000000000000000000000000000000602082015250565b6000614abe6022836132ad565b9150614ac982614a62565b604082019050919050565b60006020820190508181036000830152614aed81614ab1565b905091905056fea2646970667358221220491a153f9c7392e2426c9d576946950f159df552392bf8075e560fafe22f122d64736f6c63430008080033",
  "immutableReferences": {
    "3389": [
      {
        "length": 32,
        "start": 7523
      }
    ],
    "3391": [
      {
        "length": 32,
        "start": 7482
      }
    ],
    "3393": [
      {
        "length": 32,
        "start": 7396
      }
    ],
    "3395": [
      {
        "length": 32,
        "start": 10742
      }
    ],
    "3397": [
      {
        "length": 32,
        "start": 10775
      }
    ],
    "3400": [
      {
        "length": 32,
        "start": 2861
      }
    ],
    "3403": [
      {
        "length": 32,
        "start": 2913
      }
    ]
  },
  "source": "// SPDX-License-Identifier: MIT\npragma solidity ^0.8.8;\n\nimport \"@openzeppelin/contracts/token/ERC20/ERC20.sol\";\nimport \"@openzeppelin/contracts/token/ERC20/extensions/ERC20Snapshot.sol\";\nimport \"@openzeppelin/contracts/access/Ownable.sol\";\nimport \"@openzeppelin/contracts/token/ERC20/extensions/ERC20Permit.sol\";\nimport \"@openzeppelin/contracts/token/ERC20/extensions/ERC20Votes.sol\";\n\n/// @custom:security-contact german.lugo@chocosfera.com\ncontract ChocosferaSRL is ERC20, ERC20Snapshot, Ownable, ERC20Permit, ERC20Votes {\n    constructor()\n        ERC20(\"Chocosfera S.r.l\", \"CHO\")\n        ERC20Permit(\"Chocosfera S.r.l\")\n    {\n        _mint(msg.sender, 170000 * 10 ** decimals());\n    }\n\n    function snapshot() public onlyOwner {\n        _snapshot();\n    }\n\n    function mint(address to, uint256 amount) public onlyOwner {\n        _mint(to, amount);\n    }\n\n    // The following functions are overrides required by Solidity.\n\n    function _beforeTokenTransfer(address from, address to, uint256 amount)\n        internal\n        override(ERC20, ERC20Snapshot)\n    {\n        super._beforeTokenTransfer(from, to, amount);\n    }\n\n    function _afterTokenTransfer(address from, address to, uint256 amount)\n        internal\n        override(ERC20, ERC20Votes)\n    {\n        super._afterTokenTransfer(from, to, amount);\n    }\n\n    function _mint(address to, uint256 amount)\n        internal\n        override(ERC20, ERC20Votes)\n    {\n        super._mint(to, amount);\n    }\n\n    function _burn(address account, uint256 amount)\n        internal\n        override(ERC20, ERC20Votes)\n    {\n        super._burn(account, amount);\n    }\n}\n",
  "sourcePath": "/Users/chocosfera/Documents/cho_srl/contracts/ChocosferaSRL.sol",
  "compiler": {
    "name": "solc",
    "version": "0.8.8+commit.dddeac2f.Emscripten.clang"
  },
  "schemaVersion": "3.4.13",
  "updatedAt": "2023-08-24T15:50:30.322Z",
  "networkType": "ethereum",
  "devdoc": {
    "custom:security-contact": "german.lugo@chocosfera.com",
    "kind": "dev",
    "methods": {
      "CLOCK_MODE()": {
        "details": "Description of the clock"
      },
      "DOMAIN_SEPARATOR()": {
        "details": "See {IERC20Permit-DOMAIN_SEPARATOR}."
      },
      "allowance(address,address)": {
        "details": "See {IERC20-allowance}."
      },
      "approve(address,uint256)": {
        "details": "See {IERC20-approve}. NOTE: If `amount` is the maximum `uint256`, the allowance is not updated on `transferFrom`. This is semantically equivalent to an infinite approval. Requirements: - `spender` cannot be the zero address."
      },
      "balanceOf(address)": {
        "details": "See {IERC20-balanceOf}."
      },
      "balanceOfAt(address,uint256)": {
        "details": "Retrieves the balance of `account` at the time `snapshotId` was created."
      },
      "checkpoints(address,uint32)": {
        "details": "Get the `pos`-th checkpoint for `account`."
      },
      "clock()": {
        "details": "Clock used for flagging checkpoints. Can be overridden to implement timestamp based checkpoints (and voting)."
      },
      "decimals()": {
        "details": "Returns the number of decimals used to get its user representation. For example, if `decimals` equals `2`, a balance of `505` tokens should be displayed to a user as `5.05` (`505 / 10 ** 2`). Tokens usually opt for a value of 18, imitating the relationship between Ether and Wei. This is the default value returned by this function, unless it's overridden. NOTE: This information is only used for _display_ purposes: it in no way affects any of the arithmetic of the contract, including {IERC20-balanceOf} and {IERC20-transfer}."
      },
      "decreaseAllowance(address,uint256)": {
        "details": "Atomically decreases the allowance granted to `spender` by the caller. This is an alternative to {approve} that can be used as a mitigation for problems described in {IERC20-approve}. Emits an {Approval} event indicating the updated allowance. Requirements: - `spender` cannot be the zero address. - `spender` must have allowance for the caller of at least `subtractedValue`."
      },
      "delegate(address)": {
        "details": "Delegate votes from the sender to `delegatee`."
      },
      "delegateBySig(address,uint256,uint256,uint8,bytes32,bytes32)": {
        "details": "Delegates votes from signer to `delegatee`"
      },
      "delegates(address)": {
        "details": "Get the address `account` is currently delegating to."
      },
      "eip712Domain()": {
        "details": "See {EIP-5267}. _Available since v4.9._"
      },
      "getPastTotalSupply(uint256)": {
        "details": "Retrieve the `totalSupply` at the end of `timepoint`. Note, this value is the sum of all balances. It is NOT the sum of all the delegated votes! Requirements: - `timepoint` must be in the past"
      },
      "getPastVotes(address,uint256)": {
        "details": "Retrieve the number of votes for `account` at the end of `timepoint`. Requirements: - `timepoint` must be in the past"
      },
      "getVotes(address)": {
        "details": "Gets the current votes balance for `account`"
      },
      "increaseAllowance(address,uint256)": {
        "details": "Atomically increases the allowance granted to `spender` by the caller. This is an alternative to {approve} that can be used as a mitigation for problems described in {IERC20-approve}. Emits an {Approval} event indicating the updated allowance. Requirements: - `spender` cannot be the zero address."
      },
      "name()": {
        "details": "Returns the name of the token."
      },
      "nonces(address)": {
        "details": "See {IERC20Permit-nonces}."
      },
      "numCheckpoints(address)": {
        "details": "Get number of checkpoints for `account`."
      },
      "owner()": {
        "details": "Returns the address of the current owner."
      },
      "permit(address,address,uint256,uint256,uint8,bytes32,bytes32)": {
        "details": "See {IERC20Permit-permit}."
      },
      "renounceOwnership()": {
        "details": "Leaves the contract without owner. It will not be possible to call `onlyOwner` functions. Can only be called by the current owner. NOTE: Renouncing ownership will leave the contract without an owner, thereby disabling any functionality that is only available to the owner."
      },
      "symbol()": {
        "details": "Returns the symbol of the token, usually a shorter version of the name."
      },
      "totalSupply()": {
        "details": "See {IERC20-totalSupply}."
      },
      "totalSupplyAt(uint256)": {
        "details": "Retrieves the total supply at the time `snapshotId` was created."
      },
      "transfer(address,uint256)": {
        "details": "See {IERC20-transfer}. Requirements: - `to` cannot be the zero address. - the caller must have a balance of at least `amount`."
      },
      "transferFrom(address,address,uint256)": {
        "details": "See {IERC20-transferFrom}. Emits an {Approval} event indicating the updated allowance. This is not required by the EIP. See the note at the beginning of {ERC20}. NOTE: Does not update the allowance if the current allowance is the maximum `uint256`. Requirements: - `from` and `to` cannot be the zero address. - `from` must have a balance of at least `amount`. - the caller must have allowance for ``from``'s tokens of at least `amount`."
      },
      "transferOwnership(address)": {
        "details": "Transfers ownership of the contract to a new account (`newOwner`). Can only be called by the current owner."
      }
    },
    "version": 1
  },
  "userdoc": {
    "kind": "user",
    "methods": {},
    "version": 1
  }
}